{
  "_format": "hh-sol-artifact-1",
  "contractName": "UFragmentsPolicy",
  "sourceName": "contracts/UFragmentsPolicy.sol",
  "abi": [
    {
      "anonymous": false,
      "inputs": [
        {
          "indexed": true,
          "internalType": "uint256",
          "name": "epoch",
          "type": "uint256"
        },
        {
          "indexed": false,
          "internalType": "uint256",
          "name": "exchangeRate",
          "type": "uint256"
        },
        {
          "indexed": false,
          "internalType": "uint256",
          "name": "cpi",
          "type": "uint256"
        },
        {
          "indexed": false,
          "internalType": "int256",
          "name": "requestedSupplyAdjustment",
          "type": "int256"
        },
        {
          "indexed": false,
          "internalType": "uint256",
          "name": "timestampSec",
          "type": "uint256"
        }
      ],
      "name": "LogRebase",
      "type": "event"
    },
    {
      "anonymous": false,
      "inputs": [
        {
          "indexed": true,
          "internalType": "address",
          "name": "previousOwner",
          "type": "address"
        }
      ],
      "name": "OwnershipRenounced",
      "type": "event"
    },
    {
      "anonymous": false,
      "inputs": [
        {
          "indexed": true,
          "internalType": "address",
          "name": "previousOwner",
          "type": "address"
        },
        {
          "indexed": true,
          "internalType": "address",
          "name": "newOwner",
          "type": "address"
        }
      ],
      "name": "OwnershipTransferred",
      "type": "event"
    },
    {
      "inputs": [
        {
          "internalType": "int256",
          "name": "normalizedRate",
          "type": "int256"
        },
        {
          "internalType": "int256",
          "name": "lower",
          "type": "int256"
        },
        {
          "internalType": "int256",
          "name": "upper",
          "type": "int256"
        },
        {
          "internalType": "int256",
          "name": "growth",
          "type": "int256"
        }
      ],
      "name": "computeRebasePercentage",
      "outputs": [
        {
          "internalType": "int256",
          "name": "",
          "type": "int256"
        }
      ],
      "stateMutability": "pure",
      "type": "function"
    },
    {
      "inputs": [],
      "name": "cpiOracle",
      "outputs": [
        {
          "internalType": "contract IOracle",
          "name": "",
          "type": "address"
        }
      ],
      "stateMutability": "view",
      "type": "function"
    },
    {
      "inputs": [],
      "name": "deviationThreshold",
      "outputs": [
        {
          "internalType": "uint256",
          "name": "",
          "type": "uint256"
        }
      ],
      "stateMutability": "view",
      "type": "function"
    },
    {
      "inputs": [],
      "name": "epoch",
      "outputs": [
        {
          "internalType": "uint256",
          "name": "",
          "type": "uint256"
        }
      ],
      "stateMutability": "view",
      "type": "function"
    },
    {
      "inputs": [],
      "name": "globalAmpleforthEpochAndAMPLSupply",
      "outputs": [
        {
          "internalType": "uint256",
          "name": "",
          "type": "uint256"
        },
        {
          "internalType": "uint256",
          "name": "",
          "type": "uint256"
        }
      ],
      "stateMutability": "view",
      "type": "function"
    },
    {
      "inputs": [],
      "name": "inRebaseWindow",
      "outputs": [
        {
          "internalType": "bool",
          "name": "",
          "type": "bool"
        }
      ],
      "stateMutability": "view",
      "type": "function"
    },
    {
      "inputs": [
        {
          "internalType": "address",
          "name": "owner_",
          "type": "address"
        },
        {
          "internalType": "contract IUFragments",
          "name": "uFrags_",
          "type": "address"
        },
        {
          "internalType": "uint256",
          "name": "baseCpi_",
          "type": "uint256"
        }
      ],
      "name": "initialize",
      "outputs": [],
      "stateMutability": "nonpayable",
      "type": "function"
    },
    {
      "inputs": [
        {
          "internalType": "address",
          "name": "sender",
          "type": "address"
        }
      ],
      "name": "initialize",
      "outputs": [],
      "stateMutability": "nonpayable",
      "type": "function"
    },
    {
      "inputs": [],
      "name": "isOwner",
      "outputs": [
        {
          "internalType": "bool",
          "name": "",
          "type": "bool"
        }
      ],
      "stateMutability": "view",
      "type": "function"
    },
    {
      "inputs": [],
      "name": "lastRebaseTimestampSec",
      "outputs": [
        {
          "internalType": "uint256",
          "name": "",
          "type": "uint256"
        }
      ],
      "stateMutability": "view",
      "type": "function"
    },
    {
      "inputs": [],
      "name": "marketOracle",
      "outputs": [
        {
          "internalType": "contract IOracle",
          "name": "",
          "type": "address"
        }
      ],
      "stateMutability": "view",
      "type": "function"
    },
    {
      "inputs": [],
      "name": "minRebaseTimeIntervalSec",
      "outputs": [
        {
          "internalType": "uint256",
          "name": "",
          "type": "uint256"
        }
      ],
      "stateMutability": "view",
      "type": "function"
    },
    {
      "inputs": [],
      "name": "orchestrator",
      "outputs": [
        {
          "internalType": "address",
          "name": "",
          "type": "address"
        }
      ],
      "stateMutability": "view",
      "type": "function"
    },
    {
      "inputs": [],
      "name": "owner",
      "outputs": [
        {
          "internalType": "address",
          "name": "",
          "type": "address"
        }
      ],
      "stateMutability": "view",
      "type": "function"
    },
    {
      "inputs": [],
      "name": "rebase",
      "outputs": [],
      "stateMutability": "nonpayable",
      "type": "function"
    },
    {
      "inputs": [],
      "name": "rebaseFunctionGrowth",
      "outputs": [
        {
          "internalType": "int256",
          "name": "",
          "type": "int256"
        }
      ],
      "stateMutability": "view",
      "type": "function"
    },
    {
      "inputs": [],
      "name": "rebaseFunctionLowerPercentage",
      "outputs": [
        {
          "internalType": "int256",
          "name": "",
          "type": "int256"
        }
      ],
      "stateMutability": "view",
      "type": "function"
    },
    {
      "inputs": [],
      "name": "rebaseFunctionUpperPercentage",
      "outputs": [
        {
          "internalType": "int256",
          "name": "",
          "type": "int256"
        }
      ],
      "stateMutability": "view",
      "type": "function"
    },
    {
      "inputs": [],
      "name": "rebaseLag",
      "outputs": [
        {
          "internalType": "uint256",
          "name": "",
          "type": "uint256"
        }
      ],
      "stateMutability": "pure",
      "type": "function"
    },
    {
      "inputs": [],
      "name": "rebaseWindowLengthSec",
      "outputs": [
        {
          "internalType": "uint256",
          "name": "",
          "type": "uint256"
        }
      ],
      "stateMutability": "view",
      "type": "function"
    },
    {
      "inputs": [],
      "name": "rebaseWindowOffsetSec",
      "outputs": [
        {
          "internalType": "uint256",
          "name": "",
          "type": "uint256"
        }
      ],
      "stateMutability": "view",
      "type": "function"
    },
    {
      "inputs": [],
      "name": "renounceOwnership",
      "outputs": [],
      "stateMutability": "nonpayable",
      "type": "function"
    },
    {
      "inputs": [
        {
          "internalType": "contract IOracle",
          "name": "cpiOracle_",
          "type": "address"
        }
      ],
      "name": "setCpiOracle",
      "outputs": [],
      "stateMutability": "nonpayable",
      "type": "function"
    },
    {
      "inputs": [
        {
          "internalType": "uint256",
          "name": "deviationThreshold_",
          "type": "uint256"
        }
      ],
      "name": "setDeviationThreshold",
      "outputs": [],
      "stateMutability": "nonpayable",
      "type": "function"
    },
    {
      "inputs": [
        {
          "internalType": "contract IOracle",
          "name": "marketOracle_",
          "type": "address"
        }
      ],
      "name": "setMarketOracle",
      "outputs": [],
      "stateMutability": "nonpayable",
      "type": "function"
    },
    {
      "inputs": [
        {
          "internalType": "address",
          "name": "orchestrator_",
          "type": "address"
        }
      ],
      "name": "setOrchestrator",
      "outputs": [],
      "stateMutability": "nonpayable",
      "type": "function"
    },
    {
      "inputs": [
        {
          "internalType": "int256",
          "name": "rebaseFunctionGrowth_",
          "type": "int256"
        }
      ],
      "name": "setRebaseFunctionGrowth",
      "outputs": [],
      "stateMutability": "nonpayable",
      "type": "function"
    },
    {
      "inputs": [
        {
          "internalType": "int256",
          "name": "rebaseFunctionLowerPercentage_",
          "type": "int256"
        }
      ],
      "name": "setRebaseFunctionLowerPercentage",
      "outputs": [],
      "stateMutability": "nonpayable",
      "type": "function"
    },
    {
      "inputs": [
        {
          "internalType": "int256",
          "name": "rebaseFunctionUpperPercentage_",
          "type": "int256"
        }
      ],
      "name": "setRebaseFunctionUpperPercentage",
      "outputs": [],
      "stateMutability": "nonpayable",
      "type": "function"
    },
    {
      "inputs": [
        {
          "internalType": "uint256",
          "name": "minRebaseTimeIntervalSec_",
          "type": "uint256"
        },
        {
          "internalType": "uint256",
          "name": "rebaseWindowOffsetSec_",
          "type": "uint256"
        },
        {
          "internalType": "uint256",
          "name": "rebaseWindowLengthSec_",
          "type": "uint256"
        }
      ],
      "name": "setRebaseTimingParameters",
      "outputs": [],
      "stateMutability": "nonpayable",
      "type": "function"
    },
    {
      "inputs": [
        {
          "internalType": "address",
          "name": "newOwner",
          "type": "address"
        }
      ],
      "name": "transferOwnership",
      "outputs": [],
      "stateMutability": "nonpayable",
      "type": "function"
    },
    {
      "inputs": [],
      "name": "uFrags",
      "outputs": [
        {
          "internalType": "contract IUFragments",
          "name": "",
          "type": "address"
        }
      ],
      "stateMutability": "view",
      "type": "function"
    }
  ],
  "bytecode": "0x608060405234801561001057600080fd5b50611450806100206000396000f3fe608060405234801561001057600080fd5b50600436106101f05760003560e01c80638da5cb5b1161010f578063b74795d9116100a2578063d94ad83711610071578063d94ad8371461044a578063e9fa88a414610452578063f2fde38b1461046f578063f4fefa4914610495576101f0565b8063b74795d9146103ee578063c4d66de8146103f6578063cd28ef0d1461041c578063d3d55d5114610442576101f0565b80639db59b2f116100de5780639db59b2f146103b05780639e30bac5146103b8578063ab33c5ca146103de578063af14052c146103e6576101f0565b80638da5cb5b146103905780638f32d59b14610398578063900cf0cf146103a05780639466120f146103a8576101f0565b806353a15edc116101875780637052b902116101565780637052b9021461035b578063715018a6146103635780637486cdea1461036b5780638001066d14610373576101f0565b806353a15edc1461030a5780635ee0154014610327578063609615281461032f57806363f6d4c814610353576101f0565b80631794bb3c116101c35780631794bb3c146102775780633a785af1146102ad5780633a93069b146102dc5780633d6a46e5146102e4576101f0565b806302101899146101f5578063105bad4f1461020f578063111d04981461023057806316250fd41461024c575b600080fd5b6101fd6104b2565b60408051918252519081900360200190f35b6102176104b8565b6040805192835260208301919091528051918290030190f35b610238610541565b604080519115158252519081900360200190f35b6102756004803603606081101561026257600080fd5b5080359060208101359060400135610588565b005b6102756004803603606081101561028d57600080fd5b506001600160a01b038135811691602081013590911690604001356105c0565b6101fd600480360360808110156102c357600080fd5b50803590602081013590604081013590606001356106d8565b6101fd610821565b610275600480360360208110156102fa57600080fd5b50356001600160a01b0316610827565b6102756004803603602081101561032057600080fd5b503561085a565b6101fd610870565b610337610876565b604080516001600160a01b039092168252519081900360200190f35b6101fd610885565b6101fd61088a565b610275610890565b6101fd6108eb565b6102756004803603602081101561038957600080fd5b50356108f1565b610337610915565b610238610924565b6101fd610935565b6101fd61093b565b6101fd610941565b610275600480360360208110156103ce57600080fd5b50356001600160a01b0316610947565b61033761097a565b610275610989565b610337610db9565b6102756004803603602081101561040c57600080fd5b50356001600160a01b0316610dc8565b6102756004803603602081101561043257600080fd5b50356001600160a01b0316610e78565b610337610eab565b6101fd610eba565b6102756004803603602081101561046857600080fd5b5035610ec0565b6102756004803603602081101561048557600080fd5b50356001600160a01b0316610ee4565b610275600480360360208110156104ab57600080fd5b5035610f01565b606c5481565b600080607054606660009054906101000a90046001600160a01b03166001600160a01b03166318160ddd6040518163ffffffff1660e01b815260040160206040518083038186803b15801561050c57600080fd5b505afa158015610520573d6000803e3d6000fd5b505050506040513d602081101561053657600080fd5b505190925090509091565b6000606e5461055b606c5442610f2590919063ffffffff16565b101580156105835750606f54606e5461057391610f44565b606c54610581904290610f25565b105b905090565b610590610924565b61059957600080fd5b600083116105a657600080fd5b8282106105b257600080fd5b606c92909255606e55606f55565b600054610100900460ff16806105d957506105d9610f5d565b806105e7575060005460ff16155b6106225760405162461bcd60e51b815260040180806020018281038252602e8152602001806113ed602e913960400191505060405180910390fd5b60008054600161010061ff00198316811760ff1916919091179092550460ff1661064b84610dc8565b66b1a2bc2ec50000606a556729a2241af62c000060745567016345785d8a000060735567016345785d89ffff1960725562015180606c55611c20606e556104b0606f556000606d8190556070819055606680546001600160a01b039095166001600160a01b03199095169490941790935560699190915581549015156101000261ff001990911617905550565b6000806106ed86670de0b6b3a7640000610f63565b9050600061070d670de0b6b3a76400006107078685610f96565b90610fdd565b9050610722670de0b6b3a76400006064610f96565b81131561073f5761073c670de0b6b3a76400006064610f96565b90505b610753670de0b6b3a7640000606319610f96565b8112156107715761076e670de0b6b3a7640000606319610f96565b90505b600061078582670de0b6b3a764000061100e565b90508061079757869350505050610819565b60006107a38789610f63565b905060006107bd896107078a670de0b6b3a7640000610f96565b90506107d58361070783670de0b6b3a7640000610f96565b905060006107eb670de0b6b3a764000083610f63565b9050600061080f8b6108098461070788670de0b6b3a7640000610f96565b90611156565b9750505050505050505b949350505050565b606d5481565b61082f610924565b61083857600080fd5b606780546001600160a01b0319166001600160a01b0392909216919091179055565b610862610924565b61086b57600080fd5b606a55565b60725481565b6068546001600160a01b031681565b600190565b606e5481565b610898610924565b6108a157600080fd5b6033546040516001600160a01b03909116907ff8df31144d9c2f0f6b59d69b8b98abd5459d07f2742c4df920b25aae33c6482090600090a2603380546001600160a01b0319169055565b60745481565b6108f9610924565b61090257600080fd5b600081121561091057600080fd5b607455565b6033546001600160a01b031690565b6033546001600160a01b0316331490565b60705481565b606f5481565b60735481565b61094f610924565b61095857600080fd5b606880546001600160a01b0319166001600160a01b0392909216919091179055565b6067546001600160a01b031681565b6071546001600160a01b031633146109a057600080fd5b6109a8610541565b6109b157600080fd5b426109c9606c54606d54610f4490919063ffffffff16565b106109d357600080fd5b6109fe606e546109f86109f1606c5442610f2590919063ffffffff16565b4290611188565b90610f44565b606d55607054610a0f906001610f44565b607055606754604080516303bc5de360e41b8152815160009384936001600160a01b0390911692633bc5de30926004808301939282900301818787803b158015610a5857600080fd5b505af1158015610a6c573d6000803e3d6000fd5b505050506040513d6040811015610a8257600080fd5b508051602090910151909250905080610a9a57600080fd5b606954600090610abc90610ab685670de0b6b3a764000061119d565b906111c4565b606854604080516303bc5de360e41b8152815193945060009384936001600160a01b031692633bc5de30926004808201939182900301818787803b158015610b0357600080fd5b505af1158015610b17573d6000803e3d6000fd5b505050506040513d6040811015610b2d57600080fd5b508051602090910151909250905080610b4557600080fd5b69d3c21bcecceda1000000821115610b655769d3c21bcecceda100000091505b6000610b7183856111e6565b9050600081138015610c18575069d3c21bcecceda10000006001600160ff1b0304610c1682606660009054906101000a90046001600160a01b03166001600160a01b03166318160ddd6040518163ffffffff1660e01b815260040160206040518083038186803b158015610be457600080fd5b505afa158015610bf8573d6000803e3d6000fd5b505050506040513d6020811015610c0e57600080fd5b505190610f44565b115b15610cc257610cbf610cba606660009054906101000a90046001600160a01b03166001600160a01b03166318160ddd6040518163ffffffff1660e01b815260040160206040518083038186803b158015610c7157600080fd5b505afa158015610c85573d6000803e3d6000fd5b505050506040513d6020811015610c9b57600080fd5b5051759abe14cd44753b52c4926a9672793542d78c3615cf3a90611188565b6112dd565b90505b60665460705460408051637a43e23f60e01b8152600481019290925260248201849052516000926001600160a01b031691637a43e23f91604480830192602092919082900301818787803b158015610d1957600080fd5b505af1158015610d2d573d6000803e3d6000fd5b505050506040513d6020811015610d4357600080fd5b50519050759abe14cd44753b52c4926a9672793542d78c3615cf3a811115610d6757fe5b60705460408051868152602081018a905280820185905242606082015290517f41d948a7f29cc695f5d4b3ec147f766bffa165ddd317470fbe05c86d0a9c3e049181900360800190a250505050505050565b6071546001600160a01b031681565b600054610100900460ff1680610de15750610de1610f5d565b80610def575060005460ff16155b610e2a5760405162461bcd60e51b815260040180806020018281038252602e8152602001806113ed602e913960400191505060405180910390fd5b60008054603380546001600160a01b0319166001600160a01b03949094169390931790925561ff001980831661010090811760ff19166001179091169281900460ff16151502919091179055565b610e80610924565b610e8957600080fd5b607180546001600160a01b0319166001600160a01b0392909216919091179055565b6066546001600160a01b031681565b606a5481565b610ec8610924565b610ed157600080fd5b6000811315610edf57600080fd5b607255565b610eec610924565b610ef557600080fd5b610efe816112f7565b50565b610f09610924565b610f1257600080fd5b6000811215610f2057600080fd5b607355565b600081610f3157600080fd5b818381610f3a57fe5b0690505b92915050565b600082820183811015610f5657600080fd5b9392505050565b303b1590565b6000818303818312801590610f785750838113155b80610f8d5750600083128015610f8d57508381135b610f5657600080fd5b6000828202600160ff1b81141580610fb75750600160ff1b84811690841614155b610fc057600080fd5b821580610f8d575083838281610fd257fe5b0514610f5657600080fd5b600081600019141580610ff45750600160ff1b8314155b610ffd57600080fd5b81838161100657fe5b059392505050565b600080808412156110285750600161102584611366565b93505b6040805160a0810182526713a04bbdfdc9be898152671080e992061ab32b6020820152670f2243014e544ebb91810191909152670e7e0178e9d6ed506060820152670e2e820ade835f46608082015260006110838686610fdd565b9050606481131561109357600080fd5b60006110a26001831b87610f96565b905060006110b9886110b4858a610f96565b610f63565b905060006110c8886002610fdd565b905060005b600581101561112c57818312611117576110e78383610f63565b9250611114611106858884600581106110fc57fe5b6020020151610f96565b670de0b6b3a7640000610fdd565b93505b611122826002610fdd565b91506001016110cd565b50851561114957611146611140898a610f96565b84610fdd565b92505b5090979650505050505050565b600082820181831280159061116b5750838112155b80610f8d5750600083128015610f8d5750838112610f5657600080fd5b60008282111561119757600080fd5b50900390565b6000826111ac57506000610f3e565b828202828482816111b957fe5b0414610f5657600080fd5b60008082116111d257600080fd5b60008284816111dd57fe5b04949350505050565b60006111f2838361138e565b156111ff57506000610f3e565b600061120a836112dd565b9050600061122d82610707670de0b6b3a7640000611227896112dd565b90610f96565b90506000611243826072546073546074546106d8565b90506112d36012600a0a61070783611227606660009054906101000a90046001600160a01b03166001600160a01b03166318160ddd6040518163ffffffff1660e01b815260040160206040518083038186803b1580156112a257600080fd5b505afa1580156112b6573d6000803e3d6000fd5b505050506040513d60208110156112cc57600080fd5b50516112dd565b9695505050505050565b60006001600160ff1b038211156112f357600080fd5b5090565b6001600160a01b03811661130a57600080fd5b6033546040516001600160a01b038084169216907f8be0079c531659141344cd1fd0a4f28419497f9722a3daafe3b4186f6b6457e090600090a3603380546001600160a01b0319166001600160a01b0392909216919091179055565b6000600160ff1b82141561137957600080fd5b600082126113875781610f3e565b5060000390565b6000806113ae6012600a0a610ab6606a548661119d90919063ffffffff16565b90508284101580156113c85750806113c68585611188565b105b80610819575082841080156108195750806113e38486611188565b1094935050505056fe436f6e747261637420696e7374616e63652068617320616c7265616479206265656e20696e697469616c697a6564a26469706673582212208adcf82c8598a452086f2f208a9b59d87511b34060de0e89a6435d0aca45c6ff64736f6c63430007060033",
  "linkReferences": {},
  "deployedLinkReferences": {}
}