{
    "_format": "hh-sol-artifact-1",
    "contractName": "XCAmple",
    "sourceName": "contracts/satellite-chain/xc-ampleforth/XCAmple.sol",
    "abi": [
        {
            "anonymous": false,
            "inputs": [
                {
                    "indexed": true,
                    "internalType": "address",
                    "name": "owner",
                    "type": "address"
                },
                {
                    "indexed": true,
                    "internalType": "address",
                    "name": "spender",
                    "type": "address"
                },
                {
                    "indexed": false,
                    "internalType": "uint256",
                    "name": "value",
                    "type": "uint256"
                }
            ],
            "name": "Approval",
            "type": "event"
        },
        {
            "anonymous": false,
            "inputs": [
                {
                    "indexed": false,
                    "internalType": "address",
                    "name": "controller",
                    "type": "address"
                }
            ],
            "name": "ControllerUpdated",
            "type": "event"
        },
        {
            "anonymous": false,
            "inputs": [
                {
                    "indexed": true,
                    "internalType": "uint256",
                    "name": "epoch",
                    "type": "uint256"
                },
                {
                    "indexed": false,
                    "internalType": "uint256",
                    "name": "globalAMPLSupply",
                    "type": "uint256"
                }
            ],
            "name": "LogRebase",
            "type": "event"
        },
        {
            "anonymous": false,
            "inputs": [
                {
                    "indexed": true,
                    "internalType": "address",
                    "name": "previousOwner",
                    "type": "address"
                },
                {
                    "indexed": true,
                    "internalType": "address",
                    "name": "newOwner",
                    "type": "address"
                }
            ],
            "name": "OwnershipTransferred",
            "type": "event"
        },
        {
            "anonymous": false,
            "inputs": [
                {
                    "indexed": true,
                    "internalType": "address",
                    "name": "from",
                    "type": "address"
                },
                {
                    "indexed": true,
                    "internalType": "address",
                    "name": "to",
                    "type": "address"
                },
                {
                    "indexed": false,
                    "internalType": "uint256",
                    "name": "value",
                    "type": "uint256"
                }
            ],
            "name": "Transfer",
            "type": "event"
        },
        {
            "inputs": [],
            "name": "DOMAIN_SEPARATOR",
            "outputs": [
                {
                    "internalType": "bytes32",
                    "name": "",
                    "type": "bytes32"
                }
            ],
            "stateMutability": "view",
            "type": "function"
        },
        {
            "inputs": [],
            "name": "EIP712_DOMAIN",
            "outputs": [
                {
                    "internalType": "bytes32",
                    "name": "",
                    "type": "bytes32"
                }
            ],
            "stateMutability": "view",
            "type": "function"
        },
        {
            "inputs": [],
            "name": "EIP712_REVISION",
            "outputs": [
                {
                    "internalType": "string",
                    "name": "",
                    "type": "string"
                }
            ],
            "stateMutability": "view",
            "type": "function"
        },
        {
            "inputs": [],
            "name": "PERMIT_TYPEHASH",
            "outputs": [
                {
                    "internalType": "bytes32",
                    "name": "",
                    "type": "bytes32"
                }
            ],
            "stateMutability": "view",
            "type": "function"
        },
        {
            "inputs": [
                {
                    "internalType": "address",
                    "name": "owner_",
                    "type": "address"
                },
                {
                    "internalType": "address",
                    "name": "spender",
                    "type": "address"
                }
            ],
            "name": "allowance",
            "outputs": [
                {
                    "internalType": "uint256",
                    "name": "",
                    "type": "uint256"
                }
            ],
            "stateMutability": "view",
            "type": "function"
        },
        {
            "inputs": [
                {
                    "internalType": "address",
                    "name": "spender",
                    "type": "address"
                },
                {
                    "internalType": "uint256",
                    "name": "value",
                    "type": "uint256"
                }
            ],
            "name": "approve",
            "outputs": [
                {
                    "internalType": "bool",
                    "name": "",
                    "type": "bool"
                }
            ],
            "stateMutability": "nonpayable",
            "type": "function"
        },
        {
            "inputs": [
                {
                    "internalType": "address",
                    "name": "who",
                    "type": "address"
                }
            ],
            "name": "balanceOf",
            "outputs": [
                {
                    "internalType": "uint256",
                    "name": "",
                    "type": "uint256"
                }
            ],
            "stateMutability": "view",
            "type": "function"
        },
        {
            "inputs": [
                {
                    "internalType": "address",
                    "name": "who",
                    "type": "address"
                },
                {
                    "internalType": "uint256",
                    "name": "xcAmpleAmount",
                    "type": "uint256"
                }
            ],
            "name": "burnFrom",
            "outputs": [],
            "stateMutability": "nonpayable",
            "type": "function"
        },
        {
            "inputs": [],
            "name": "controller",
            "outputs": [
                {
                    "internalType": "address",
                    "name": "",
                    "type": "address"
                }
            ],
            "stateMutability": "view",
            "type": "function"
        },
        {
            "inputs": [],
            "name": "decimals",
            "outputs": [
                {
                    "internalType": "uint8",
                    "name": "",
                    "type": "uint8"
                }
            ],
            "stateMutability": "view",
            "type": "function"
        },
        {
            "inputs": [
                {
                    "internalType": "address",
                    "name": "spender",
                    "type": "address"
                },
                {
                    "internalType": "uint256",
                    "name": "subtractedValue",
                    "type": "uint256"
                }
            ],
            "name": "decreaseAllowance",
            "outputs": [
                {
                    "internalType": "bool",
                    "name": "",
                    "type": "bool"
                }
            ],
            "stateMutability": "nonpayable",
            "type": "function"
        },
        {
            "inputs": [],
            "name": "globalAMPLSupply",
            "outputs": [
                {
                    "internalType": "uint256",
                    "name": "",
                    "type": "uint256"
                }
            ],
            "stateMutability": "view",
            "type": "function"
        },
        {
            "inputs": [
                {
                    "internalType": "address",
                    "name": "spender",
                    "type": "address"
                },
                {
                    "internalType": "uint256",
                    "name": "addedValue",
                    "type": "uint256"
                }
            ],
            "name": "increaseAllowance",
            "outputs": [
                {
                    "internalType": "bool",
                    "name": "",
                    "type": "bool"
                }
            ],
            "stateMutability": "nonpayable",
            "type": "function"
        },
        {
            "inputs": [
                {
                    "internalType": "string",
                    "name": "name",
                    "type": "string"
                },
                {
                    "internalType": "string",
                    "name": "symbol",
                    "type": "string"
                },
                {
                    "internalType": "uint256",
                    "name": "globalAMPLSupply_",
                    "type": "uint256"
                }
            ],
            "name": "initialize",
            "outputs": [],
            "stateMutability": "nonpayable",
            "type": "function"
        },
        {
            "inputs": [
                {
                    "internalType": "address",
                    "name": "who",
                    "type": "address"
                },
                {
                    "internalType": "uint256",
                    "name": "xcAmpleAmount",
                    "type": "uint256"
                }
            ],
            "name": "mint",
            "outputs": [],
            "stateMutability": "nonpayable",
            "type": "function"
        },
        {
            "inputs": [],
            "name": "name",
            "outputs": [
                {
                    "internalType": "string",
                    "name": "",
                    "type": "string"
                }
            ],
            "stateMutability": "view",
            "type": "function"
        },
        {
            "inputs": [
                {
                    "internalType": "address",
                    "name": "who",
                    "type": "address"
                }
            ],
            "name": "nonces",
            "outputs": [
                {
                    "internalType": "uint256",
                    "name": "",
                    "type": "uint256"
                }
            ],
            "stateMutability": "view",
            "type": "function"
        },
        {
            "inputs": [],
            "name": "owner",
            "outputs": [
                {
                    "internalType": "address",
                    "name": "",
                    "type": "address"
                }
            ],
            "stateMutability": "view",
            "type": "function"
        },
        {
            "inputs": [
                {
                    "internalType": "address",
                    "name": "owner",
                    "type": "address"
                },
                {
                    "internalType": "address",
                    "name": "spender",
                    "type": "address"
                },
                {
                    "internalType": "uint256",
                    "name": "value",
                    "type": "uint256"
                },
                {
                    "internalType": "uint256",
                    "name": "deadline",
                    "type": "uint256"
                },
                {
                    "internalType": "uint8",
                    "name": "v",
                    "type": "uint8"
                },
                {
                    "internalType": "bytes32",
                    "name": "r",
                    "type": "bytes32"
                },
                {
                    "internalType": "bytes32",
                    "name": "s",
                    "type": "bytes32"
                }
            ],
            "name": "permit",
            "outputs": [],
            "stateMutability": "nonpayable",
            "type": "function"
        },
        {
            "inputs": [
                {
                    "internalType": "uint256",
                    "name": "epoch",
                    "type": "uint256"
                },
                {
                    "internalType": "uint256",
                    "name": "newGlobalAMPLSupply",
                    "type": "uint256"
                }
            ],
            "name": "rebase",
            "outputs": [
                {
                    "internalType": "uint256",
                    "name": "",
                    "type": "uint256"
                }
            ],
            "stateMutability": "nonpayable",
            "type": "function"
        },
        {
            "inputs": [],
            "name": "renounceOwnership",
            "outputs": [],
            "stateMutability": "nonpayable",
            "type": "function"
        },
        {
            "inputs": [
                {
                    "internalType": "address",
                    "name": "who",
                    "type": "address"
                }
            ],
            "name": "scaledBalanceOf",
            "outputs": [
                {
                    "internalType": "uint256",
                    "name": "",
                    "type": "uint256"
                }
            ],
            "stateMutability": "view",
            "type": "function"
        },
        {
            "inputs": [],
            "name": "scaledTotalSupply",
            "outputs": [
                {
                    "internalType": "uint256",
                    "name": "",
                    "type": "uint256"
                }
            ],
            "stateMutability": "pure",
            "type": "function"
        },
        {
            "inputs": [
                {
                    "internalType": "address",
                    "name": "controller_",
                    "type": "address"
                }
            ],
            "name": "setController",
            "outputs": [],
            "stateMutability": "nonpayable",
            "type": "function"
        },
        {
            "inputs": [],
            "name": "symbol",
            "outputs": [
                {
                    "internalType": "string",
                    "name": "",
                    "type": "string"
                }
            ],
            "stateMutability": "view",
            "type": "function"
        },
        {
            "inputs": [],
            "name": "totalSupply",
            "outputs": [
                {
                    "internalType": "uint256",
                    "name": "",
                    "type": "uint256"
                }
            ],
            "stateMutability": "view",
            "type": "function"
        },
        {
            "inputs": [
                {
                    "internalType": "address",
                    "name": "to",
                    "type": "address"
                },
                {
                    "internalType": "uint256",
                    "name": "value",
                    "type": "uint256"
                }
            ],
            "name": "transfer",
            "outputs": [
                {
                    "internalType": "bool",
                    "name": "",
                    "type": "bool"
                }
            ],
            "stateMutability": "nonpayable",
            "type": "function"
        },
        {
            "inputs": [
                {
                    "internalType": "address",
                    "name": "to",
                    "type": "address"
                }
            ],
            "name": "transferAll",
            "outputs": [
                {
                    "internalType": "bool",
                    "name": "",
                    "type": "bool"
                }
            ],
            "stateMutability": "nonpayable",
            "type": "function"
        },
        {
            "inputs": [
                {
                    "internalType": "address",
                    "name": "from",
                    "type": "address"
                },
                {
                    "internalType": "address",
                    "name": "to",
                    "type": "address"
                }
            ],
            "name": "transferAllFrom",
            "outputs": [
                {
                    "internalType": "bool",
                    "name": "",
                    "type": "bool"
                }
            ],
            "stateMutability": "nonpayable",
            "type": "function"
        },
        {
            "inputs": [
                {
                    "internalType": "address",
                    "name": "from",
                    "type": "address"
                },
                {
                    "internalType": "address",
                    "name": "to",
                    "type": "address"
                },
                {
                    "internalType": "uint256",
                    "name": "value",
                    "type": "uint256"
                }
            ],
            "name": "transferFrom",
            "outputs": [
                {
                    "internalType": "bool",
                    "name": "",
                    "type": "bool"
                }
            ],
            "stateMutability": "nonpayable",
            "type": "function"
        },
        {
            "inputs": [
                {
                    "internalType": "address",
                    "name": "newOwner",
                    "type": "address"
                }
            ],
            "name": "transferOwnership",
            "outputs": [],
            "stateMutability": "nonpayable",
            "type": "function"
        }
    ],
    "bytecode": "0x608060405234801561001057600080fd5b506122f6806100206000396000f3fe608060405234801561001057600080fd5b50600436106101e55760003560e01c806379cc67901161010f578063a9059cbb116100a2578063dd62ed3e11610071578063dd62ed3e146106de578063e1b11da41461070c578063f2fde38b14610714578063f77c47911461073a576101e5565b8063a9059cbb1461052a578063b119490e14610556578063b1bf962d14610685578063d505accf1461068d576101e5565b806392eefe9b116100de57806392eefe9b146104aa57806395d89b41146104d0578063a3a7e7f3146104d8578063a457c2d7146104fe576101e5565b806379cc6790146104065780637ecebe001461043257806384d4b410146104585780638da5cb5b14610486576101e5565b806330adf81f1161018757806340c10f191161015657806340c10f19146103a257806370a08231146103d0578063715018a6146103f657806378160376146103fe576101e5565b806330adf81f14610348578063313ce567146103505780633644e5151461036e5780633950935114610376576101e5565b806318160ddd116101c357806318160ddd146102dc5780631a795e29146102e45780631da24f3e146102ec57806323b872dd14610312576101e5565b8063058ecdb4146101ea57806306fdde031461021f578063095ea7b31461029c575b600080fd5b61020d6004803603604081101561020057600080fd5b5080359060200135610742565b60408051918252519081900360200190f35b61022761086f565b6040805160208082528351818301528351919283929083019185019080838360005b83811015610261578181015183820152602001610249565b50505050905090810190601f16801561028e5780820380516001836020036101000a031916815260200191505b509250505060405180910390f35b6102c8600480360360408110156102b257600080fd5b506001600160a01b038135169060200135610905565b604080519115158252519081900360200190f35b61020d610959565b61020d61095f565b61020d6004803603602081101561030257600080fd5b50356001600160a01b0316610965565b6102c86004803603606081101561032857600080fd5b506001600160a01b03813581169160208101359091169060400135610980565b61020d610b21565b610358610b45565b6040805160ff9092168252519081900360200190f35b61020d610b4e565b6102c86004803603604081101561038c57600080fd5b506001600160a01b038135169060200135610c55565b6103ce600480360360408110156103b857600080fd5b506001600160a01b038135169060200135610cd6565b005b61020d600480360360208110156103e657600080fd5b50356001600160a01b0316610ef9565b6103ce610f21565b610227610fd5565b6103ce6004803603604081101561041c57600080fd5b506001600160a01b038135169060200135610ff2565b61020d6004803603602081101561044857600080fd5b50356001600160a01b0316611130565b6102c86004803603604081101561046e57600080fd5b506001600160a01b038135811691602001351661114b565b61048e6112d6565b604080516001600160a01b039092168252519081900360200190f35b6103ce600480360360208110156104c057600080fd5b50356001600160a01b03166112e5565b6102276113a3565b6102c8600480360360208110156104ee57600080fd5b50356001600160a01b0316611404565b6102c86004803603604081101561051457600080fd5b506001600160a01b03813516906020013561153a565b6102c86004803603604081101561054057600080fd5b506001600160a01b038135169060200135611611565b6103ce6004803603606081101561056c57600080fd5b81019060208101813564010000000081111561058757600080fd5b82018360208201111561059957600080fd5b803590602001918460018302840111640100000000831117156105bb57600080fd5b91908080601f016020809104026020016040519081016040528093929190818152602001838380828437600092019190915250929594936020810193503591505064010000000081111561060e57600080fd5b82018360208201111561062057600080fd5b8035906020019184600183028401116401000000008311171561064257600080fd5b91908080601f0160208091040260200160405190810160405280939291908181526020018383808284376000920191909152509295505091359250611757915050565b61020d61185a565b6103ce600480360360e08110156106a357600080fd5b506001600160a01b03813581169160208101359091169060408101359060608101359060ff6080820135169060a08101359060c00135611866565b61020d600480360360408110156106f457600080fd5b506001600160a01b0381358116916020013516611aa7565b61020d611ad2565b6103ce6004803603602081101561072a57600080fd5b50356001600160a01b0316611af6565b61048e611c01565b6065546000906001600160a01b031633146107a4576040805162461bcd60e51b815260206004820152601e60248201527f5843416d706c653a2063616c6c6572206e6f7420636f6e74726f6c6c65720000604482015290519081900360640190fd5b606954828114156107ec5760408051828152905185917f72725a3b1e5bd622d6bcd1339bb31279c351abe8f541ac7fd320f24e1b1641f2919081900360200190a29050610869565b61080b8161080585606b54611c1090919063ffffffff16565b90611c70565b606b55606983905561082b8366b1a2bc2ec500006000195b061990611c70565b606a5560408051848152905185917f72725a3b1e5bd622d6bcd1339bb31279c351abe8f541ac7fd320f24e1b1641f2919081900360200190a2829150505b92915050565b60668054604080516020601f60026000196101006001881615020190951694909404938401819004810282018101909252828152606093909290918301828280156108fb5780601f106108d0576101008083540402835291602001916108fb565b820191906000526020600020905b8154815290600101906020018083116108de57829003601f168201915b5050505050905090565b336000818152606d602090815260408083206001600160a01b0387168085529083528184208690558151868152915193949093909260008051602061225d833981519152928290030190a350600192915050565b606b5490565b60695481565b6001600160a01b03166000908152606c602052604090205490565b6000826001600160a01b0381166109cc576040805162461bcd60e51b815260206004820152601f6024820152600080516020612159833981519152604482015290519081900360640190fd5b6001600160a01b038116301415610a18576040805162461bcd60e51b815260206004820181905260248201526000805160206121ef833981519152604482015290519081900360640190fd5b6001600160a01b0385166000908152606d60209081526040808320338452909152902054610a469084611cb2565b6001600160a01b0386166000908152606d60209081526040808320338452909152812091909155606a54610a7b908590611c10565b6001600160a01b0387166000908152606c6020526040902054909150610aa19082611cb2565b6001600160a01b038088166000908152606c60205260408082209390935590871681522054610ad09082611cf4565b6001600160a01b038087166000818152606c602090815260409182902094909455805188815290519193928a169260008051602061223d83398151915292918290030190a350600195945050505050565b7f6e71edae12b1b97f4d1f60370fef10105fa2faae0126114a169c64845d6126c981565b60685460ff1690565b6000804690507f8b73c3c69bb8fe3d512ecc4cf759cc79239f7b179b0ffacaa9a75d522b39400f60666040518082805460018160011615610100020316600290048015610bd25780601f10610bb0576101008083540402835291820191610bd2565b820191906000526020600020905b815481529060010190602001808311610bbe575b505060408051918290038220828201825260018352603160f81b602093840152815180840196909652858201527fc89efdaa54c0f20c7adf612882df0950f5a951637e0307cdcb4c672f298b8bc6606086015260808501959095523060a0808601919091528551808603909101815260c090940190945250508051910120905090565b336000908152606d602090815260408083206001600160a01b0386168452909152812054610c839083611cf4565b336000818152606d602090815260408083206001600160a01b03891680855290835292819020859055805194855251919360008051602061225d833981519152929081900390910190a350600192915050565b6065546001600160a01b03163314610d35576040805162461bcd60e51b815260206004820152601e60248201527f5843416d706c653a2063616c6c6572206e6f7420636f6e74726f6c6c65720000604482015290519081900360640190fd5b816001600160a01b038116610d7f576040805162461bcd60e51b815260206004820152601f6024820152600080516020612159833981519152604482015290519081900360640190fd5b6001600160a01b038116301415610dcb576040805162461bcd60e51b815260206004820181905260248201526000805160206121ef833981519152604482015290519081900360640190fd5b6000610de2606a5484611c1090919063ffffffff16565b6001600160a01b0385166000908152606c6020526040902054909150610e089082611cf4565b6001600160a01b0385166000908152606c6020526040902055606b54610e2e9084611cf4565b606b8190556069541015610e735760405162461bcd60e51b815260040180806020018281038252602e81526020018061220f602e913960400191505060405180910390fd5b606b546fffffffffffffffffffffffffffffffff1015610ec45760405162461bcd60e51b81526004018080602001828103825260278152602001806121c86027913960400191505060405180910390fd5b6040805184815290516001600160a01b0386169160009160008051602061223d8339815191529181900360200190a350505050565b606a546001600160a01b0382166000908152606c602052604081205490916108699190611c70565b610f29611d4e565b6033546001600160a01b03908116911614610f8b576040805162461bcd60e51b815260206004820181905260248201527f4f776e61626c653a2063616c6c6572206973206e6f7420746865206f776e6572604482015290519081900360640190fd5b6033546040516000916001600160a01b0316907f8be0079c531659141344cd1fd0a4f28419497f9722a3daafe3b4186f6b6457e0908390a3603380546001600160a01b0319169055565b604051806040016040528060018152602001603160f81b81525081565b6065546001600160a01b03163314611051576040805162461bcd60e51b815260206004820152601e60248201527f5843416d706c653a2063616c6c6572206e6f7420636f6e74726f6c6c65720000604482015290519081900360640190fd5b6001600160a01b0382166110965760405162461bcd60e51b815260040180806020018281038252602281526020018061227d6022913960400191505060405180910390fd5b60006110ad606a5483611c1090919063ffffffff16565b6001600160a01b0384166000908152606c60205260409020549091506110d39082611cb2565b6001600160a01b0384166000908152606c6020526040902055606b546110f99083611cb2565b606b556040805183815290516000916001600160a01b0386169160008051602061223d8339815191529181900360200190a3505050565b6001600160a01b03166000908152606e602052604090205490565b6000816001600160a01b038116611197576040805162461bcd60e51b815260206004820152601f6024820152600080516020612159833981519152604482015290519081900360640190fd5b6001600160a01b0381163014156111e3576040805162461bcd60e51b815260206004820181905260248201526000805160206121ef833981519152604482015290519081900360640190fd5b6001600160a01b0384166000908152606c6020526040812054606a5490919061120d908390611c70565b6001600160a01b0387166000908152606d6020908152604080832033845290915290205490915061123e9082611cb2565b6001600160a01b038088166000818152606d60209081526040808320338452825280832095909555918152606c909152828120819055908716815220546112859083611cf4565b6001600160a01b038087166000818152606c602090815260409182902094909455805185815290519193928a169260008051602061223d83398151915292918290030190a350600195945050505050565b6033546001600160a01b031690565b6112ed611d4e565b6033546001600160a01b0390811691161461134f576040805162461bcd60e51b815260206004820181905260248201527f4f776e61626c653a2063616c6c6572206973206e6f7420746865206f776e6572604482015290519081900360640190fd5b606580546001600160a01b0383166001600160a01b0319909116811790915560408051918252517f1304018cfe79741dcf02ba6b61d39cc4757d59395d03224d9925c7aa830021469181900360200190a150565b60678054604080516020601f60026000196101006001881615020190951694909404938401819004810282018101909252828152606093909290918301828280156108fb5780601f106108d0576101008083540402835291602001916108fb565b6000816001600160a01b038116611450576040805162461bcd60e51b815260206004820152601f6024820152600080516020612159833981519152604482015290519081900360640190fd5b6001600160a01b03811630141561149c576040805162461bcd60e51b815260206004820181905260248201526000805160206121ef833981519152604482015290519081900360640190fd5b336000908152606c6020526040812054606a549091906114bd908390611c70565b336000908152606c60205260408082208290556001600160a01b03881682529020549091506114ec9083611cf4565b6001600160a01b0386166000818152606c602090815260409182902093909355805184815290519192339260008051602061223d8339815191529281900390910190a3506001949350505050565b336000908152606d602090815260408083206001600160a01b038616845290915281205480831061158e57336000908152606d602090815260408083206001600160a01b03881684529091528120556115bd565b6115988184611cb2565b336000908152606d602090815260408083206001600160a01b03891684529091529020555b336000818152606d602090815260408083206001600160a01b03891680855290835292819020548151908152905192939260008051602061225d833981519152929181900390910190a35060019392505050565b6000826001600160a01b03811661165d576040805162461bcd60e51b815260206004820152601f6024820152600080516020612159833981519152604482015290519081900360640190fd5b6001600160a01b0381163014156116a9576040805162461bcd60e51b815260206004820181905260248201526000805160206121ef833981519152604482015290519081900360640190fd5b60006116c0606a5485611c1090919063ffffffff16565b336000908152606c60205260409020549091506116dd9082611cb2565b336000908152606c6020526040808220929092556001600160a01b038716815220546117099082611cf4565b6001600160a01b0386166000818152606c602090815260409182902093909355805187815290519192339260008051602061223d8339815191529281900390910190a3506001949350505050565b600054610100900460ff16806117705750611770611d52565b8061177e575060005460ff16155b6117b95760405162461bcd60e51b815260040180806020018281038252602e815260200180612179602e913960400191505060405180910390fd5b600054610100900460ff161580156117e4576000805460ff1961ff0019909116610100171660011790555b6117ec611d58565b83516117ff90606690602087019061209f565b50825161181390606790602086019061209f565b506068805460ff1916600917905560698290556000606b5561183f8266b1a2bc2ec50000600019610823565b606a558015611854576000805461ff00191690555b50505050565b6678d2044da4ffff1990565b834211156118a55760405162461bcd60e51b815260040180806020018281038252602281526020018061229f6022913960400191505060405180910390fd5b6001600160a01b038088166000818152606e602090815260408083205481517f6e71edae12b1b97f4d1f60370fef10105fa2faae0126114a169c64845d6126c98185015280830195909552948b166060850152608084018a905260a0840185905260c08085018a90528151808603909101815260e09094019052825192019190912090611930610b4e565b82604051602001808061190160f01b8152506002018381526020018281526020019250505060405160208183030381529060405280519060200120905060018187878760405160008152602001604052604051808581526020018460ff1681526020018381526020018281526020019450505050506020604051602081039080840390855afa1580156119c7573d6000803e3d6000fd5b505050602060405103516001600160a01b03168a6001600160a01b031614611a36576040805162461bcd60e51b815260206004820152601a60248201527f5843416d706c653a207369676e617475726520696e76616c6964000000000000604482015290519081900360640190fd5b611a41836001611cf4565b6001600160a01b03808c166000818152606e6020908152604080832095909555606d8152848220938e16808352938152908490208c905583518c815293519293919260008051602061225d8339815191529281900390910190a350505050505050505050565b6001600160a01b039182166000908152606d6020908152604080832093909416825291909152205490565b7f8b73c3c69bb8fe3d512ecc4cf759cc79239f7b179b0ffacaa9a75d522b39400f81565b611afe611d4e565b6033546001600160a01b03908116911614611b60576040805162461bcd60e51b815260206004820181905260248201527f4f776e61626c653a2063616c6c6572206973206e6f7420746865206f776e6572604482015290519081900360640190fd5b6001600160a01b038116611ba55760405162461bcd60e51b81526004018080602001828103825260268152602001806121336026913960400191505060405180910390fd5b6033546040516001600160a01b038084169216907f8be0079c531659141344cd1fd0a4f28419497f9722a3daafe3b4186f6b6457e090600090a3603380546001600160a01b0319166001600160a01b0392909216919091179055565b6065546001600160a01b031681565b600082611c1f57506000610869565b82820282848281611c2c57fe5b0414611c695760405162461bcd60e51b81526004018080602001828103825260218152602001806121a76021913960400191505060405180910390fd5b9392505050565b6000611c6983836040518060400160405280601a81526020017f536166654d6174683a206469766973696f6e206279207a65726f000000000000815250611e0a565b6000611c6983836040518060400160405280601e81526020017f536166654d6174683a207375627472616374696f6e206f766572666c6f770000815250611eac565b600082820183811015611c69576040805162461bcd60e51b815260206004820152601b60248201527f536166654d6174683a206164646974696f6e206f766572666c6f770000000000604482015290519081900360640190fd5b3390565b303b1590565b600054610100900460ff1680611d715750611d71611d52565b80611d7f575060005460ff16155b611dba5760405162461bcd60e51b815260040180806020018281038252602e815260200180612179602e913960400191505060405180910390fd5b600054610100900460ff16158015611de5576000805460ff1961ff0019909116610100171660011790555b611ded611f06565b611df5611fa6565b8015611e07576000805461ff00191690555b50565b60008183611e965760405162461bcd60e51b81526004018080602001828103825283818151815260200191508051906020019080838360005b83811015611e5b578181015183820152602001611e43565b50505050905090810190601f168015611e885780820380516001836020036101000a031916815260200191505b509250505060405180910390fd5b506000838581611ea257fe5b0495945050505050565b60008184841115611efe5760405162461bcd60e51b8152602060048201818152835160248401528351909283926044909101919085019080838360008315611e5b578181015183820152602001611e43565b505050900390565b600054610100900460ff1680611f1f5750611f1f611d52565b80611f2d575060005460ff16155b611f685760405162461bcd60e51b815260040180806020018281038252602e815260200180612179602e913960400191505060405180910390fd5b600054610100900460ff16158015611df5576000805460ff1961ff0019909116610100171660011790558015611e07576000805461ff001916905550565b600054610100900460ff1680611fbf5750611fbf611d52565b80611fcd575060005460ff16155b6120085760405162461bcd60e51b815260040180806020018281038252602e815260200180612179602e913960400191505060405180910390fd5b600054610100900460ff16158015612033576000805460ff1961ff0019909116610100171660011790555b600061203d611d4e565b603380546001600160a01b0319166001600160a01b038316908117909155604051919250906000907f8be0079c531659141344cd1fd0a4f28419497f9722a3daafe3b4186f6b6457e0908290a3508015611e07576000805461ff001916905550565b828054600181600116156101000203166002900490600052602060002090601f016020900481019282601f106120e057805160ff191683800117855561210d565b8280016001018555821561210d579182015b8281111561210d5782518255916020019190600101906120f2565b5061211992915061211d565b5090565b5b80821115612119576000815560010161211e56fe4f776e61626c653a206e6577206f776e657220697320746865207a65726f20616464726573735843416d706c653a20726563697069656e74207a65726f206164647265737300496e697469616c697a61626c653a20636f6e747261637420697320616c726561647920696e697469616c697a6564536166654d6174683a206d756c7469706c69636174696f6e206f766572666c6f775843416d706c653a20746f74616c206d696e74206578636565646564206d617820737570706c795843416d706c653a20726563697069656e7420746f6b656e20616464726573735843416d706c653a20746f74616c206d696e7420657863656564656420746f74616c20616d706c20737570706c79ddf252ad1be2c89b69c2b068fc378daa952ba7f163c4a11628f55a4df523b3ef8c5be1e5ebec7d5bd14f71427d1e84f3dd0314c0f7b2291e5b200ac8c7c3b9255843416d706c653a206275726e2061646472657373207a65726f20616464726573735843416d706c653a20737572706173736564207065726d697420646561646c696e65a2646970667358221220cae201767a80ec3384161053f61277bac6ed7481b46de959f81158af29975e5b64736f6c63430007030033",
    "linkReferences": {},
    "deployedLinkReferences": {}
}